{
  "contractName": "SingleCrowdfunding",
  "abi": [
    {
      "inputs": [],
      "stateMutability": "nonpayable",
      "type": "constructor"
    },
    {
      "inputs": [],
      "name": "author",
      "outputs": [
        {
          "internalType": "address",
          "name": "",
          "type": "address"
        }
      ],
      "stateMutability": "view",
      "type": "function",
      "constant": true
    },
    {
      "inputs": [],
      "name": "closed",
      "outputs": [
        {
          "internalType": "bool",
          "name": "",
          "type": "bool"
        }
      ],
      "stateMutability": "view",
      "type": "function",
      "constant": true
    },
    {
      "inputs": [],
      "name": "endTime",
      "outputs": [
        {
          "internalType": "uint256",
          "name": "",
          "type": "uint256"
        }
      ],
      "stateMutability": "view",
      "type": "function",
      "constant": true
    },
    {
      "inputs": [
        {
          "internalType": "address",
          "name": "",
          "type": "address"
        }
      ],
      "name": "joined",
      "outputs": [
        {
          "internalType": "uint256",
          "name": "",
          "type": "uint256"
        }
      ],
      "stateMutability": "view",
      "type": "function",
      "constant": true
    },
    {
      "inputs": [],
      "name": "price",
      "outputs": [
        {
          "internalType": "uint256",
          "name": "",
          "type": "uint256"
        }
      ],
      "stateMutability": "view",
      "type": "function",
      "constant": true
    },
    {
      "stateMutability": "payable",
      "type": "receive",
      "payable": true
    },
    {
      "inputs": [],
      "name": "withdrawFund",
      "outputs": [],
      "stateMutability": "nonpayable",
      "type": "function"
    },
    {
      "inputs": [],
      "name": "withdraw",
      "outputs": [],
      "stateMutability": "nonpayable",
      "type": "function"
    }
  ],
  "bytecode": "0x608060405266470de4df8200006003556000600460006101000a81548160ff02191690831515021790555034801561003657600080fd5b50336000806101000a81548173ffffffffffffffffffffffffffffffffffffffff021916908373ffffffffffffffffffffffffffffffffffffffff16021790555062278d004261008691906100ca565b6002819055506100fe565b6000819050919050565b7f4e487b7100000000000000000000000000000000000000000000000000000000600052601160045260246000fd5b60006100d582610091565b91506100e083610091565b92508282019050808211156100f8576100f761009b565b5b92915050565b610b538061010d6000396000f3fe6080604052600436106100745760003560e01c8063a035b1fe1161004e578063a035b1fe146101db578063a6c3e6b914610206578063e07fa3c114610231578063f887d0191461024857610169565b80633197cbb61461016e5780633ccfd60b14610199578063597e1fb5146101b057610169565b3661016957600254421080156100975750600460009054906101000a900460ff16155b6100d6576040517f08c379a00000000000000000000000000000000000000000000000000000000081526004016100cd90610626565b60405180910390fd5b60035434101561011b576040517f08c379a000000000000000000000000000000000000000000000000000000000815260040161011290610692565b60405180910390fd5b34600160003373ffffffffffffffffffffffffffffffffffffffff1673ffffffffffffffffffffffffffffffffffffffff16815260200190815260200160002081905550610167610285565b005b600080fd5b34801561017a57600080fd5b506101836102cb565b60405161019091906106cb565b60405180910390f35b3480156101a557600080fd5b506101ae6102d1565b005b3480156101bc57600080fd5b506101c5610437565b6040516101d29190610701565b60405180910390f35b3480156101e757600080fd5b506101f061044a565b6040516101fd91906106cb565b60405180910390f35b34801561021257600080fd5b5061021b610450565b604051610228919061075d565b60405180910390f35b34801561023d57600080fd5b50610246610474565b005b34801561025457600080fd5b5061026f600480360381019061026a91906107a9565b6105b1565b60405161027c91906106cb565b60405180910390f35b600066071afd498d0000670de0b6b3a7640000476102a39190610834565b6102ad9190610865565b90508066470de4df8200006102c291906108a7565b60038190555050565b60025481565b6002544211610315576040517f08c379a000000000000000000000000000000000000000000000000000000000815260040161030c90610927565b60405180910390fd5b600460009054906101000a900460ff1615610365576040517f08c379a000000000000000000000000000000000000000000000000000000000815260040161035c90610993565b60405180910390fd5b47678ac7230489e80000116103af576040517f08c379a00000000000000000000000000000000000000000000000000000000081526004016103a690610a25565b60405180910390fd5b3373ffffffffffffffffffffffffffffffffffffffff166108fc600160003373ffffffffffffffffffffffffffffffffffffffff1673ffffffffffffffffffffffffffffffffffffffff168152602001908152602001600020549081150290604051600060405180830381858888f19350505050158015610434573d6000803e3d6000fd5b50565b600460009054906101000a900460ff1681565b60035481565b60008054906101000a900473ffffffffffffffffffffffffffffffffffffffff1681565b60008054906101000a900473ffffffffffffffffffffffffffffffffffffffff1673ffffffffffffffffffffffffffffffffffffffff163373ffffffffffffffffffffffffffffffffffffffff1614610502576040517f08c379a00000000000000000000000000000000000000000000000000000000081526004016104f990610a91565b60405180910390fd5b678ac7230489e8000047101561054d576040517f08c379a000000000000000000000000000000000000000000000000000000000815260040161054490610afd565b60405180910390fd5b6001600460006101000a81548160ff0219169083151502179055503373ffffffffffffffffffffffffffffffffffffffff166108fc479081150290604051600060405180830381858888f193505050501580156105ae573d6000803e3d6000fd5b50565b60016020528060005260406000206000915090505481565b600082825260208201905092915050565b7f636620697320656e640000000000000000000000000000000000000000000000600082015250565b60006106106009836105c9565b915061061b826105da565b602082019050919050565b6000602082019050818103600083015261063f81610603565b9050919050565b7f6c657373207468616e2070726963650000000000000000000000000000000000600082015250565b600061067c600f836105c9565b915061068782610646565b602082019050919050565b600060208201905081810360008301526106ab8161066f565b9050919050565b6000819050919050565b6106c5816106b2565b82525050565b60006020820190506106e060008301846106bc565b92915050565b60008115159050919050565b6106fb816106e6565b82525050565b600060208201905061071660008301846106f2565b92915050565b600073ffffffffffffffffffffffffffffffffffffffff82169050919050565b60006107478261071c565b9050919050565b6107578161073c565b82525050565b6000602082019050610772600083018461074e565b92915050565b600080fd5b6107868161073c565b811461079157600080fd5b50565b6000813590506107a38161077d565b92915050565b6000602082840312156107bf576107be610778565b5b60006107cd84828501610794565b91505092915050565b7f4e487b7100000000000000000000000000000000000000000000000000000000600052601260045260246000fd5b7f4e487b7100000000000000000000000000000000000000000000000000000000600052601160045260246000fd5b600061083f826106b2565b915061084a836106b2565b92508261085a576108596107d6565b5b828204905092915050565b6000610870826106b2565b915061087b836106b2565b9250828202610889816106b2565b915082820484148315176108a05761089f610805565b5b5092915050565b60006108b2826106b2565b91506108bd836106b2565b92508282019050808211156108d5576108d4610805565b5b92915050565b7f656e642074696d65206e6f742072656163680000000000000000000000000000600082015250565b60006109116012836105c9565b915061091c826108db565b602082019050919050565b6000602082019050818103600083015261094081610904565b9050919050565b7f636620697320636c6f7365642c20616c72656164792077697468647261770000600082015250565b600061097d601e836105c9565b915061098882610947565b602082019050919050565b600060208201905081810360008301526109ac81610970565b9050919050565b7f6e6f74207265616368207461726765742c2063616e206e6f742077697468647260008201527f6177000000000000000000000000000000000000000000000000000000000000602082015250565b6000610a0f6022836105c9565b9150610a1a826109b3565b604082019050919050565b60006020820190508181036000830152610a3e81610a02565b9050919050565b7f796f7520617265206e6f7420617574686f720000000000000000000000000000600082015250565b6000610a7b6012836105c9565b9150610a8682610a45565b602082019050919050565b60006020820190508181036000830152610aaa81610a6e565b9050919050565b7f6e6f742072656163682074617267657400000000000000000000000000000000600082015250565b6000610ae76010836105c9565b9150610af282610ab1565b602082019050919050565b60006020820190508181036000830152610b1681610ada565b905091905056fea26469706673582212206352a299fa1c1e48eeda61ff65b4ceedcc9199881488c6861e6dd0b7926709b264736f6c63430008110033",
  "immutableReferences": {},
  "source": "// SPDX-License-Identifier: GPL-3.0\n\npragma solidity >=0.7.0 <0.9.0;\n\n\ncontract SingleCrowdfunding {\n    // \n    address public author;\n\n    // \n    mapping(address => uint) public joined;\n\n    // \n    uint constant Target = 10 ether;\n\n    // \n    uint public endTime;\n\n    // \n    uint public price  = 0.02 ether ;\n\n    // \n    bool public closed = false;\n\n    // \n    constructor() {\n        author = msg.sender;\n        endTime = block.timestamp + 30 days;\n    }\n\n    // \n    function updatePrice() internal {\n        uint rise = address(this).balance / 1 ether * 0.002 ether;\n        price = 0.02 ether + rise;\n    }\n\n    //  \n    receive () external payable {\n        require(block.timestamp < endTime && !closed  , \"cf is end\");\n        require (msg.value >= price, \"less than price\");\n        joined[msg.sender] = msg.value;\n\n        updatePrice();\n    } \n\n    // \n    function withdrawFund() external {\n        require(msg.sender == author, \"you are not author\");\n        require(address(this).balance >= Target, \"not reach target\");\n        closed = true;   \n        payable(msg.sender).transfer(address(this).balance);\n    }\n\n    // \n    function withdraw() external {\n        require(block.timestamp > endTime, \"end time not reach\");\n        require(!closed, \"cf is closed, already withdraw\");\n        require(Target > address(this).balance, \"not reach target, can not withdraw\");\n        \n        payable(msg.sender).transfer(joined[msg.sender]);\n    }\n\n}\n\n",
  "sourcePath": "/root/workspace/work2/cf_eth/contracts/SingleCrowdfunding.sol",
  "compiler": {
    "name": "solc",
    "version": "0.8.17+commit.8df45f5f.Emscripten.clang"
  },
  "schemaVersion": "3.4.11",
  "updatedAt": "2023-01-06T10:30:37.500Z",
  "networkType": "ethereum",
  "devdoc": {
    "kind": "dev",
    "methods": {},
    "version": 1
  },
  "userdoc": {
    "kind": "user",
    "methods": {},
    "version": 1
  }
}